S00C0000546573742E7372656378
S11300000C942A000C9447000C9447000C9447006D
S11300100C9447000C9447000C9469020C9436022B
S11300200C945F020C940D020C9447000C9447004E
S11300300C9447000C949C020C9447000C94C50249
S11300400C9447000C9447000C9447000C94470010
S11300500C94470011241FBECFE5D8E0DEBFCDBF0E
S113006010E0A0E6B0E0E2E3F6E002C005900D92F5
S1130070A238B107D9F720E0A2E8B0E001C01D9290
S1130080AD38B207E1F70E94E1000C9417030C9419
S11300900000CF93DF93009781F0EC010E943001C0
S11300A060E0CE010E946A012496CE010E943001D4
S11300B060E0CE010E946A0101C080E0DF91CF912F
S11300C00895CF93DF93009751F0EC0160E00E9414
S11300D06A0161E0CE0104960E946A0101C080E0D9
S11300E0DF91CF910895CF93DF93009751F0EC0106
S11300F061E00E946A0160E0CE0104960E946A01F8
S113010001C080E0DF91CF910895CF93DF930097F2
S113011051F0EC0160E00E946A0160E0CE010496B7
S11301200E946A0101C080E0DF91CF910895CF93CE
S1130130C82F0E94D1018C2F0E94EF01CF91089506
S113014088E690E00E9461008093820080E690E05F
S11301500E94610080938200089588E690E00E94E6
S113016073008093820080E690E00E947300809385
S11301708200089588E690E00E94610080938200E6
S113018080E690E00E94850080938200089588E6CE
S113019090E00E9485008093820080E690E00E94B7
S11301A0610080938200089588E690E00E948500B3
S11301B08093820080E690E00E9485008093820014
S11301C00895CF9388E690E00E94490080938200CE
S11301D080E690E00E9449008093820040E260E85B
S11301E08EE00E94A90182E390E00E94C10188E5AB
S11301F00E9497000E949202C0E3C093700080E7BF
S113020090E00E94EE0280917000863619F40E94FC
S1130210A00016C0823619F40E94AD0011C08237C6
S113022019F40E94BA000CC08C3619F40E94C7005D
S113023007C0833719F40E94D40002C0843751F0F8
S11302402FE789EA93E0215080409040E1F700C015
S11302500000D3CF0E94D40080E090E0CF910895B5
S1130260FC01892B99F18281882319F08130B9F03E
S11302702FC0A081B0E0AA0FBB1FA758BF4F0D909D
S1130280BC91A02D2C9181E090E0018002C0880FE8
S1130290991F0A94E2F7822B8C9381E00895A08140
S11302A0B0E0AA0FBB1FA758BF4F0D90BC91A02D63
S11302B02C9181E090E0018002C0880F991F0A947C
S11302C0E2F7809582238C9381E0089580E008957D
S11302D080E008950097C9F16623E1F06130B9F533
S11302E0DC01EC91F0E0EE0FFF1FEF58FF4F01909F
S11302F0F081E02D408121E030E0B90111960C90AD
S113030002C0660F771F0A94E2F7CB01842B808327
S113031081E00895DC01EC91F0E0EE0FFF1FEF584F
S1130320FF4F0190F081E02D408121E030E0B901E0
S113033011960C9002C0660F771F0A94E2F7CB0166
S113034080958423808381E0089580E0089580E08F
S113035008959FB5282F2370920F9FBD9EB58C7072
S1130360880F890F8EBD8EB58E5F8EBD8FB5862B9F
S11303708FBD8FB5482B4FBD662311F08D9A8C9A93
S11303800895BC0188EE93E00E94F40261157105A2
S113039029F06150710977BD66BD089517BC16BC7C
S11303A0089546B557B54F5F5F4F282F249FC0016E
S11303B0259F900D11249C013695279536952795F8
S11303C0ABE7B4E10E94080396958795009721F066
S11303D001979BBD8ABD08951BBC1ABC089546B500
S11303E057B54F5F5F4F282F249FC001259F900D65
S11303F011249C013695279536952795ABE7B4E1F2
S11304000E94080396958795009721F0019799BD5E
S113041088BD089519BC18BC08951F920F920FB699
S11304200F9211242F933F934F935F936F937F9376
S11304308F939F93AF93BF93EF93FF93E0918700C4
S1130440F0918800309709F00995FF91EF91BF91E1
S1130450AF919F918F917F916F915F914F913F9158
S11304602F910F900FBE0F901F9018951F920F920F
S11304700FB60F9211242F933F934F935F936F9373
S11304807F938F939F93AF93BF93EF93FF93E091E9
S11304908500F0918600309709F00995FF91EF915E
S11304A0BF91AF919F918F917F916F915F914F9188
S11304B03F912F910F900FBE0F901F9018951F9290
S11304C00F920FB60F9211240F900FBE0F901F9032
S11304D018951F920F920FB60F9211242F933F93EA
S11304E04F935F936F937F938F939F93AF93BF9338
S11304F0EF93FF93E0918300F0918400309709F02B
S11305000995FF91EF91BF91AF919F918F917F9149
S11305106F915F914F913F912F910F900FBE0F906C
S11305201F9018955998529886E880BD10BC83E3B3
S113053089B9549A539A08951F920F920FB60F9245
S113054011242F933F934F935F936F937F938F93D4
S11305509F93AF93BF93EF93FF93E0918B00F09140
S11305608C00309709F00995FF91EF91BF91AF91FD
S11305709F918F917F916F915F914F913F912F91B7
S11305800F900FBE0F901F9018951F920F920FB6E9
S11305900F9211242F933F934F935F936F937F9305
S11305A08F939F93AF93BF93EF93FF93E091890051
S11305B0F0918A00309709F00995FF91EF91BF916E
S11305C0AF919F918F917F916F915F914F913F91E7
S11305D02F910F900FBE0F901F9018955F9B03C033
S11305E02CB1FC0120830895AA1BBB1B51E107C059
S11305F0AA1FBB1FA617B70710F0A61BB70B881FAF
S1130600991F5A95A9F780959095BC01CD0108953D
S1130610A29FB001B39FC001A39F700D811D11243F
S1130620911DB29F700D811D1124911D0895F894A0
S1050630FFCFF6
S113063200020000000300000000000000010000AE
S1130642303B003800350032003A003700340031C4
S10506520000A2
S9030000FC
