:100000000C942A000C9478100C94AB100C94DE1015
:100010000C9447000C9447000C94210D0C94BB0CDD
:100020000C94EE0C0C94880C0C9447000C94800EED
:100030000C9447000C9490080C9447000C94C3084F
:100040000C940A150C94AC070C9447000C944700D0
:100050000C94470011241FBECFE5D8E0DEBFCDBF12
:1000600012E0A0E6B0E0E6E5FAE402C005900D92E9
:10007000A434B107D9F712E0A4E4B2E001C01D92A4
:10008000A037B107E1F70E94C11D0C9429250C94FB
:100090000000EF92FF920F931F937B018C0120E0F1
:1000A00030E040E05FE40E94F50388238CF0C80153
:1000B000B70120E030E040E05FE40E94C1010E940F
:1000C00055049B01AC01205030404040504806C0D0
:1000D000C801B7010E9455049B01AC01B901CA01D6
:1000E0001F910F91FF90EF900895A0E0B0E0EBE733
:1000F000F0E00C94F224DC012B01FA019C91923087
:1001000008F439C1EB018881823008F433C194309E
:1001100069F4843009F02FC111969C91119789815F
:10012000981709F428C1A3EAB0E025C1843009F486
:1001300021C18230A9F4923009F01DC19A01AD01AC
:1001400088E0EA010990AE01E90109929E0181501F
:10015000C1F7E201898111969C918923818308C1AD
:10016000923009F407C112962D903C901397EB0141
:100170008A819B811496AD90BD90CD90DC901797AD
:10018000EC80FD800E811F819101281B390BB90184
:1001900037FF04C066277727621B730B6032710537
:1001A0000CF061C0121613066CF537014801062EDB
:1001B00004C096948794779467940A94D2F721E0C8
:1001C00030E040E050E004C0220F331F441F551FB1
:1001D0006A95D2F721503040404050402E213F21B7
:1001E00040235123211531054105510521F021E01E
:1001F00030E040E050E079018A01E628F72808293C
:1002000019293CC0232BD1F1260E371E350146019A
:10021000062E04C096948794779467940A94D2F734
:1002200021E030E040E050E004C0220F331F441FC3
:10023000551F6A95D2F721503040404050402A2146
:100240003B214C215D21211531054105510521F04E
:1002500021E030E040E050E059016A01A628B728CB
:10026000C828D9280BC0821593052CF01C01AA249C
:10027000BB24650103C0EE24FF24870111969C91E5
:10028000D20111968C91981709F445C0992339F041
:10029000A80197012A193B094C095D0906C0A6016E
:1002A00095012E193F09400B510B57FD08C01182D3
:1002B0003382228224833583468357831DC081E0A5
:1002C00081833382228288279927DC01821B930B4A
:1002D000A40BB50B84839583A683B7830DC0220F2F
:1002E000331F441F551F24833583468357838281E0
:1002F000938101979383828324813581468157813D
:10030000DA01C9010197A109B1098F5F9F4FAF4F72
:10031000BF4328F30BC0918333822282EA0CFB1C7B
:100320000C1D1D1DE482F5820683178383E0808304
:10033000248135814681578157FF1AC0C901AA27F8
:1003400097FDA095BA2F81709070A070B0705695EF
:10035000479537952795822B932BA42BB52B848318
:100360009583A683B7838281938101969383828349
:10037000DF0101C0D201CD01CDB7DEB7E2E10C94BF
:100380000E25A0E2B0E0E7ECF1E00C94FE246983D6
:100390007A838B839C832D833E834F835887E9E048
:1003A000EE2EF12CEC0EFD1ECE010196B7010E943F
:1003B00046068E010F5E1F4FCE010596B8010E94C2
:1003C00046068A8991E089278A8BC701B801AE0168
:1003D000475E5F4F0E9475000E947105A096E6E09F
:1003E0000C941A25A0E2B0E0E8EFF1E00C94FE24B2
:1003F00069837A838B839C832D833E834F835887C5
:10040000F9E0EF2EF12CEC0EFD1ECE010196B701A6
:100410000E9446068E010F5E1F4FCE010596B80161
:100420000E944606C701B801AE01475E5F4F0E94B9
:1004300075000E947105A096E6E00C941A25A0E2D2
:10044000B0E0E5E2F2E00C94F22469837A838B83D6
:100450009C832D833E834F835887CE010196BE0136
:10046000675F7F4F0E944606CE010596BE016F5E14
:100470007F4F0E9446069985923088F089898230A4
:10048000C8F0943019F4823051F404C0843029F457
:10049000923081F483EA90E0C6C0923049F420E0C3
:1004A0009A858A89981321E02A87CE010996BBC0D4
:1004B000823049F420E09A858A89981321E02A8BBA
:1004C000CE014196B0C02D843E844F8458886D88FB
:1004D0007E888F88988CEE24FF248701AA24BB2471
:1004E000650140E050E060E070E0E0E0F0E0C10174
:1004F00081709070892BE9F0E60CF71C081D191D1E
:100500009A01AB012A0D3B1D4C1D5D1D80E090E062
:10051000A0E0B0E0E614F7040805190520F481E036
:1005200090E0A0E0B0E0BA01A901480F591F6A1F8E
:100530007B1FAA0CBB1CCC1CDD1C97FE08C081E0F5
:1005400090E0A0E0B0E0A82AB92ACA2ADB2A3196B6
:10055000E032F10549F0660C771C881C991C569412
:10056000479437942794C3CFFA85EA892B893C892D
:100570008B859C85280F391F2E5F3F4F17C0CA01FE
:1005800081709070892B61F016950795F794E79428
:1005900080E090E0A0E0B0E8E82AF92A0A2B1B2BC3
:1005A00076956795579547952F5F3F4F77FDE7CF36
:1005B0000CC0440F551F661F771F17FD4160EE0CDE
:1005C000FF1C001F111F21503040403090E05907A0
:1005D00090E0690790E4790760F32B8F3C8FDB0193
:1005E000CA018F779070A070B07080349105A1051A
:1005F000B10561F447FD0AC0E114F10401051105DC
:1006000029F0405C5F4F6F4F7F4F40781A8EFE1786
:1006100011F081E08A8F4D8F5E8F6F8F78A383E01A
:10062000898FCE0149960E947105A096E2E10C9453
:100630000E25A8E1B0E0EFE1F3E00C94FA24698321
:100640007A838B839C832D833E834F835887B9E0C5
:10065000EB2EF12CEC0EFD1ECE010196B7010E948F
:1006600046068E010F5E1F4FCE010596B8010E940F
:1006700046062985223008F47EC03989323010F4CC
:10068000B8017CC08A859A8989278A87243011F02D
:10069000223031F4231709F06EC063EA70E06EC0B7
:1006A000343039F41D861E861F86188A1C861B86E8
:1006B00004C0323021F484E08987B7015FC02B8504
:1006C0003C858B899C89281B390B3C872B87ED84C3
:1006D000FE840F851889AD88BE88CF88D88CEA142F
:1006E000FB040C051D0540F4EE0CFF1C001F111F40
:1006F000215030403C872B8720E030E040E050E044
:1007000080E090E0A0E0B0E460E070E0EA14FB0478
:100710000C051D0540F0282B392B4A2B5B2BEA18C2
:10072000FB080C091D09B695A79597958795EE0CC2
:10073000FF1C001F111F6F5F7F4F6F31710531F775
:10074000DA01C9018F779070A070B0708034910584
:10075000A105B10561F427FD0AC0E114F10401050A
:10076000110529F0205C3F4F4F4F5F4F20782D87B8
:100770003E874F87588BBE01675F7F4FCB010E943A
:1007800071056896EAE00C941625A8E1B0E0EBEC60
:10079000F3E00C94FE2469837A838B839C832D83FE
:1007A0003E834F83588789E0E82EF12CEC0EFD1E26
:1007B000CE010196B7010E9446068E010F5E1F4FC3
:1007C000CE010596B8010E9446068985823040F028
:1007D0008989823028F0C701B8010E94BE0601C095
:1007E0008FEF6896E6E00C941A25A8E1B0E0EBEFF5
:1007F000F3E00C94FE2469837A838B839C832D839E
:100800003E834F83588789E0E82EF12CEC0EFD1EC5
:10081000CE010196B7010E9446068E010F5E1F4F62
:10082000CE010596B8010E9446068985823040F0C7
:100830008989823028F0C701B8010E94BE0601C034
:100840008FEF6896E6E00C941A25A8E1B0E0EBE2A1
:10085000F4E00C94FE2469837A838B839C832D833C
:100860003E834F83588789E0E82EF12CEC0EFD1E65
:10087000CE010196B7010E9446068E010F5E1F4F02
:10088000CE010596B8010E9446068985823040F067
:100890008989823028F0C701B8010E94BE0601C0D4
:1008A00081E06896E6E00C941A25ACE0B0E0EBE558
:1008B000F4E00C94022569837A838B839C83CE01B8
:1008C0000196BE016B5F7F4F0E9446068D8182308C
:1008D00061F1823050F1843021F48E81882351F10E
:1008E0002EC02F81388537FD20C06E812F31310514
:1008F0001CF06623F9F023C08EE190E0821B930B7D
:1009000029853A854B855C8504C056954795379572
:1009100027958A95D2F76623B1F05095409530958A
:1009200021953F4F4F4F5F4F0EC020E030E040E039
:1009300050E009C02FEF3FEF4FEF5FE704C020E02A
:1009400030E040E050E8B901CA012C96E2E00C9496
:100950001E25A8E0B0E0EFEAF4E00C94FA247B0155
:100960008C01611571058105910519F482E0898377
:1009700060C083E089838EE1C82ED12CDC82CB82DB
:10098000ED82FE820F831887C801B7010E942205FD
:10099000FC013197F7FF3BC0222733272E1B3F0B6B
:1009A00057016801022E04C0D694C794B794A79447
:1009B0000A94D2F740E050E060E070E081E090E01F
:1009C000A0E0B0E004C0880F991FAA1FBB1F2A95A2
:1009D000D2F70197A109B1098E219F21A023B1234C
:1009E0000097A105B10521F041E050E060E070E022
:1009F0004A295B296C297D294D835E836F83788723
:100A00008EE190E08E1B9F0B9C838B8312C03097EE
:100A100081F00E2E04C0EE0CFF1C001F111F0A9463
:100A2000D2F7ED82FE820F831887CE1ADF0ADC82AE
:100A3000CB821A82CE0101960E9471052896EAE0C7
:100A40000C941625EF92FF920F931F937B018C015C
:100A500080E0E81680E0F80681E0080780E01807EB
:100A600088F48FEFE816F1040105110531F028F044
:100A700088E090E0A0E0B0E017C080E090E0A0E067
:100A8000B0E012C080E0E81680E0F80680E00807D9
:100A900081E0180728F088E190E0A0E0B0E004C011
:100AA00080E190E0A0E0B0E020E230E040E050E003
:100AB000281B390B4A0B5B0B04C016950795F7945E
:100AC000E7948A95D2F7F701E555FF4F8081281BFF
:100AD000310941095109C9011F910F91FF90EF9010
:100AE0000895DF92EF92FF920F931F93FC01E48031
:100AF000F58006811781D1808081823048F480E0C2
:100B000090E0A0E1B0E0E82AF92A0A2B1B2BA5C04F
:100B1000843009F49FC0823021F4EE24FF24870141
:100B200005C0E114F1040105110519F4E0E0F0E05D
:100B300096C0628173819FEF623879070CF05BC0C9
:100B400022E83FEF261B370B2A3131052CF020E03D
:100B500030E040E050E02AC0B801A701022E04C0F6
:100B600076956795579547950A94D2F781E090E07E
:100B7000A0E0B0E004C0880F991FAA1FBB1F2A95F0
:100B8000D2F70197A109B1098E219F21A023B1239A
:100B90000097A105B10521F081E090E0A0E0B0E070
:100BA0009A01AB01282B392B4A2B5B2BDA01C901A7
:100BB0008F779070A070B07080349105A105B10559
:100BC00039F427FF09C0205C3F4F4F4F5F4F04C0EF
:100BD000215C3F4F4F4F5F4FE0E0F0E02030A0E05E
:100BE0003A07A0E04A07A0E45A0710F0E1E0F0E07D
:100BF00079018A0127C06038710564F5FB01E1586D
:100C0000FF4FD801C7018F779070A070B07080340B
:100C10009105A105B10539F4E7FE0DC080E490E02F
:100C2000A0E0B0E004C08FE390E0A0E0B0E0E80E08
:100C3000F91E0A1F1B1F17FF05C016950795F7948D
:100C4000E794319687E016950795F794E7948A958F
:100C5000D1F705C0EE24FF248701EFEFF0E06E2FFF
:100C6000679566276795902F9F77D794DD24D79453
:100C70008E2F8695492F462B582F5D29B701CA0123
:100C80001F910F91FF90EF90DF900895FC01DB0121
:100C9000408151812281622F6F7770E0221F2227CD
:100CA000221F9381892F880F822B282F30E0991FD4
:100CB0009927991F11969C93119721153105A9F534
:100CC000411551056105710511F482E037C082E8D4
:100CD0009FEF13969C938E9312979A01AB0167E056
:100CE000220F331F441F551F6A95D1F783E08C9361
:100CF0000DC0220F331F441F551F12968D919C91DA
:100D00001397019713969C938E931297203080E04F
:100D1000380780E0480780E4580758F314962D936D
:100D20003D934D935C93179708952F3F310579F4C8
:100D3000411551056105710519F484E08C930895FE
:100D400064FF03C081E08C9312C01C9210C02F5727
:100D5000304013963C932E93129783E08C9387E058
:100D6000440F551F661F771F8A95D1F7706414963C
:100D70004D935D936D937C93179708951F93DC01BA
:100D8000FB019C91923008F447C08081823008F4C6
:100D900043C0943051F411961C91843099F58181AF
:100DA000682F70E0611B71093FC0843021F09230E0
:100DB00031F48230B9F18181882389F12DC01196F7
:100DC0001C9111978230F1F081811817D9F4129695
:100DD0002D913C911397828193818217930794F010
:100DE00028173907BCF014968D919D910D90BC91F8
:100DF000A02D2481358146815781281739074A075C
:100E00005B0718F4112341F00AC082179307A40767
:100E1000B50740F4112319F061E070E005C06FEFF1
:100E20007FEF02C060E070E0CB011F910895DF9377
:100E3000CF9300D00F92CDB7DEB789837B836A83CF
:100E4000ECE3F0E08081882F90E082709070009752
:100E5000B9F7EEE3F0E08981882F90E091838083F9
:100E6000ACE3B0E0ECE3F0E0808181608C93EDE3F3
:100E7000F0E08081EA81FB8180830F900F900F90DA
:100E8000CF91DF910895DF93CF9300D0CDB7DEB738
:100E900089836A83ECE3F0E08081882F90E08270A0
:100EA00090700097B9F7EEE3F0E08981882F90E029
:100EB00091838083ACE3B0E0ECE3F0E0808181607B
:100EC0008C93EDE3F0E090818A81981791F0EDE347
:100ED000F0E08A818083ACE3B0E0ECE3F0E0808175
:100EE00084608C93ACE3B0E0ECE3F0E0808182605E
:100EF0008C930F900F90CF91DF910895DF93CF9354
:100F0000CDB7DEB7ACE3B0E0ECE3F0E08081886021
:100F10008C93CF91DF910895DF93CF93CDB7DEB758
:100F2000ACE3B0E0ECE3F0E08081877F8C93CF917D
:100F3000DF910895DF93CF9300D0CDB7DEB79A83CA
:100F4000898389819A8190934502809344020F900E
:100F50000F90CF91DF9108951F920F920FB60F92CD
:100F600011242F933F934F935F936F937F938F93AE
:100F70009F93AF93BF93EF93FF93DF93CF93CDB73F
:100F8000DEB78091440290914502009729F0E091EC
:100F90004402F09145020995CF91DF91FF91EF91C5
:100FA000BF91AF919F918F917F916F915F914F9181
:100FB0003F912F910F900FBE0F901F901895DF93C8
:100FC000CF9300D00F92CDB7DEB71B821A82198261
:100FD000ABE2B0E0EBE2F0E080818D7F8C938B811F
:100FE00080688B838B818F7B8B838B818F7E8B83C0
:100FF0008B818F7D8B838B8182608B838B818460DF
:101000008B83AAE2B0E0EAE2F0E080818B7F8C93F0
:101010008B81877F8B83E0E4F0E08B8180838091FC
:10102000FB019091FC019A838983E0E4F0E08981DF
:101030009A81892F99278083E9E2F0E08981808372
:10104000AAE2B0E0EAE2F0E0808180618C93AAE25B
:10105000B0E0EAE2F0E0808188608C930F900F901E
:101060000F90CF91DF910895DF93CF93CDB7DEB787
:10107000AAE2B0E0EAE2F0E0808180688C93CF9150
:10108000DF910895DF93CF93CDB7DEB7AAE2B0E04A
:10109000EAE2F0E080818F778C93CF91DF91089521
:1010A000DF93CF93CDB7DEB7AAE2B0E0EAE2F0E09B
:1010B000808180648C93CF91DF910895DF93CF93EB
:1010C000CDB7DEB7AAE2B0E0EAE2F0E080818F7B44
:1010D0008C93CF91DF910895DF93CF9300D0CDB75C
:1010E000DEB79A83898389819A819093470280939E
:1010F00046020F900F90CF91DF910895DF93CF9329
:1011000000D0CDB7DEB79A83898389819A81909385
:101110004902809348020F900F90CF91DF9108957C
:101120001F920F920FB60F9211242F933F934F935C
:101130005F936F937F938F939F93AF93BF93EF933F
:10114000FF93DF93CF93CDB7DEB7809146029091A6
:101150004702009729F0E0914602F0914702099575
:10116000CF91DF91FF91EF91BF91AF919F918F91BF
:101170007F916F915F914F913F912F910F900FBE93
:101180000F901F9018951F920F920FB60F92112477
:101190002F933F934F935F936F937F938F939F937F
:1011A000AF93BF93EF93FF93DF93CF93CDB7DEB7AA
:1011B0008091480290914902009729F0E0914802FD
:1011C000F09149020995CF91DF91FF91EF91BF9185
:1011D000AF919F918F917F916F915F914F913F91CF
:1011E0002F910F900FBE0F901F901895DF93CF9304
:1011F0000F92CDB7DEB78983ECE2F0E0898180837E
:101200000F90CF91DF910895DF93CF93CDB7DEB7E5
:10121000ECE2F0E08081CF91DF910895DF93CF93EE
:101220000F92CDB7DEB78983EBE2F0E08081829543
:1012300086958770882F90E0817090700097A1F359
:10124000ECE2F0E0898180830F90CF91DF910895E7
:10125000DF93CF93CDB7DEB7EBE2F0E08081882358
:10126000DCF7ECE2F0E08081CF91DF910895DF932D
:10127000CF9300D00F92CDB7DEB79B838A831982BC
:101280000EC08981282F30E08A819B81FC01E20F0A
:10129000F31F80810E940E0989818F5F8983898174
:1012A000282F30E08A819B81FC01E20FF31F8081AF
:1012B000882339F70F900F900F90CF91DF91089509
:1012C000DF93CF9300D00F92CDB7DEB79B838A8395
:1012D0001982EBE2F0E0808188234CF4ECE2F0E04C
:1012E0008081EA81FB81808381E0898301C019824A
:1012F00089810F900F900F90CF91DF910895DF9328
:10130000CF9300D00F92CDB7DEB789836A834B832A
:10131000AFE4B0E0EFE4F0E0908189818370890F61
:101320008C93AEE4B0E0EEE4F0E0908189818C70C3
:10133000880F890F8C93AEE4B0E0EEE4F0E080819A
:101340008E5F8C93AFE4B0E0EFE4F0E090818A81AF
:10135000892B8C93AFE4B0E0EFE4F0E090818B81D7
:10136000892B8C938A81882339F0A1E3B0E0E1E3F3
:10137000F0E0808180628C938A81882339F0A1E338
:10138000B0E0E1E3F0E0808180618C930F900F90FA
:101390000F90CF91DF910895DF93CF93CDB7DEB754
:1013A000A9E5B0E0E9E5F0E0808184608C93CF911D
:1013B000DF910895DF93CF93CDB7DEB7A9E5B0E015
:1013C000E9E5F0E080818B7F8C93CF91DF910895E8
:1013D000DF93CF9300D0CDB7DEB79A83898389811D
:1013E0009A8190934C0280934B020F900F90CF9173
:1013F000DF910895DF93CF9300D0CDB7DEB79A8306
:101400008983EAE4F0E089819A81918380830F9057
:101410000F90CF91DF910895DF93CF9300D0CDB798
:10142000DEB79A838983E8E4F0E089819A81918329
:1014300080830F900F90CF91DF910895DF93CF932A
:1014400000D0CDB7DEB79A838983E6E4F0E08981E6
:101450009A81918380830F900F90CF91DF910895AF
:10146000DF93CF9300D0CDB7DEB79A838983ECE4C6
:10147000F0E089819A81918380830F900F90CF91C2
:10148000DF910895DF93CF9300D000D0CDB7DEB7C2
:101490009C838B8388EE93E02B813C81B9010E9471
:1014A000BC24CB019A83898389819A81009741F07A
:1014B000E6E4F0E089819A8101979183808304C0FA
:1014C000E6E4F0E0118210820F900F900F900F90E1
:1014D000CF91DF910895DF93CF9300D000D0CDB7A7
:1014E000DEB79C838B838B819C819C0140E050E024
:1014F00080E492E4AFE0B0E0BC01CD010E94D024D2
:10150000DA01C9019A83898389819A81009741F020
:10151000E6E4F0E089819A8101979183808304C099
:10152000E6E4F0E0118210820F900F900F900F9080
:10153000CF91DF910895EF92FF920F931F93DF9366
:10154000CF9300D00F92CDB7DEB78B838B81E82E7F
:10155000FF2400E010E0E6E4F0E080819181019654
:101560009C0140E050E0C801B7010E949D24DC01CD
:10157000CB0124E630E040E050E0BC01CD010E9408
:10158000D024DA01C9019A83898389819A810097DD
:1015900041F0EAE4F0E089819A81019791838083A8
:1015A00004C0EAE4F0E0118210820F900F900F90D7
:1015B000CF91DF911F910F91FF90EF900895EF92DF
:1015C000FF920F931F93DF93CF9300D00F92CDB76D
:1015D000DEB78B838B81E82EFF2400E010E0E6E489
:1015E000F0E08081918101969C0140E050E0C801CB
:1015F000B7010E949D24DC01CB0124E630E040E0ED
:1016000050E0BC01CD010E94D024DA01C9019A83C7
:10161000898389819A81009741F0E8E4F0E089812B
:101620009A8101979183808304C0E8E4F0E01182FD
:1016300010820F900F900F90CF91DF911F910F911B
:10164000FF90EF900895DF93CF93CDB7DEB7A9E574
:10165000B0E0E9E5F0E0808180618C93CF91DF918B
:101660000895DF93CF9300D0CDB7DEB79A838983F7
:1016700089819A8190934E0280934D020F900F9032
:10168000CF91DF910895DF93CF93CDB7DEB7A9E572
:10169000B0E0E9E5F0E080818F7E8C93CF91DF911F
:1016A0000895DF93CF93CDB7DEB7CF91DF91089543
:1016B000DF93CF93CDB7DEB7CF91DF910895DF935E
:1016C000CF9300D0CDB7DEB79A8389830F900F9068
:1016D000CF91DF910895DF93CF930F92CDB7DEB70F
:1016E00089838981882341F4AEE4B0E0EEE4F0E040
:1016F00080818F7B8C930AC08981813039F4AEE47C
:10170000B0E0EEE4F0E0808180648C930F90CF91A4
:10171000DF910895DF93CF93CDB7DEB7A9E5B0E0B1
:10172000E9E5F0E0808180628C93CF91DF910895AC
:10173000DF93CF93CDB7DEB7A9E5B0E0E9E5F0E000
:1017400080818F7D8C93CF91DF910895DF93CF932C
:1017500000D0CDB7DEB79A83898389819A8190932F
:101760005202809351020F900F90CF91DF91089514
:10177000EF92FF920F931F93DF93CF93CDB7DEB716
:1017800028970FB6F894DEBF0FBECDBF9E838D8322
:1017900078876F83ECE4F0E0118210828AE49CE0A9
:1017A0000E94A60B81E00E946B0B0E948A0B109294
:1017B0004A0280914A028330E0F320916A0230911C
:1017C0006B0280916C0290916D02A901481B590B2C
:1017D000CA019C838B8320916802309169028091B9
:1017E0006A0290916B02A901481B590BCA019A83A6
:1017F00089838B819C81CC01A0E0B0E024E630E0BD
:1018000040E050E0BC01CD010E949D247B018C0191
:101810008B819C819C0140E050E089819A81CC01C0
:10182000A0E0B0E0280F391F4A1F5B1FC801B701B5
:101830000E94D024DA01C901EF81F88580838B8171
:101840009C819C0140E050E089819A81CC01A0E01C
:10185000B0E0280F391F4A1F5B1F80E492E4AFE01D
:10186000B0E0BC01CD010E94D024DA01C901ED81B4
:10187000FE8180839183A283B38328960FB6F89468
:10188000DEBF0FBECDBFCF91DF911F910F91FF90B3
:10189000EF900895DF93CF93CDB7DEB780914A02E2
:1018A000882379F4E6E4F0E08081918190936D02E1
:1018B00080936C0280E00E946B0B81E080934A026F
:1018C00024C080914A02813079F4E6E4F0E080811E
:1018D000918190936B0280936A0281E00E946B0B6E
:1018E00082E080934A0211C080914A02823069F4FA
:1018F000E6E4F0E080819181909369028093680230
:101900000E94980B83E080934A02CF91DF91089563
:101910001F920F920FB60F9211242F933F934F9364
:101920005F936F937F938F939F93AF93BF93EF9347
:10193000FF93DF93CF93CDB7DEB780914B029091A9
:101940004C02009729F0E0914B02F0914C0209956E
:10195000CF91DF91FF91EF91BF91AF919F918F91C7
:101960007F916F915F914F913F912F910F900FBE9B
:101970000F901F9018951F920F920FB60F9211247F
:101980002F933F934F935F936F937F938F939F9387
:10199000AF93BF93EF93FF93DF93CF93CDB7DEB7B2
:1019A00080914D0290914E02009729F0E0914D02F6
:1019B000F0914E020995CF91DF91FF91EF91BF9188
:1019C000AF919F918F917F916F915F914F913F91D7
:1019D0002F910F900FBE0F901F9018951F920F928E
:1019E0000FB60F9211242F933F934F935F936F93F2
:1019F0007F938F939F93AF93BF93EF93FF93DF9367
:101A0000CF93CDB7DEB780914F02909150020097EF
:101A100029F0E0914F02F09150020995CF91DF91AA
:101A2000FF91EF91BF91AF919F918F917F916F91B6
:101A30005F914F913F912F910F900FBE0F901F908C
:101A400018951F920F920FB60F9211242F933F9368
:101A50004F935F936F937F938F939F93AF93BF93B6
:101A6000EF93FF93DF93CF93CDB7DEB78091510211
:101A700090915202009729F0E0915102F0915202A8
:101A80000995CF91DF91FF91EF91BF91AF919F9118
:101A90008F917F916F915F914F913F912F910F9017
:101AA0000FBE0F901F901895DF93CF9300D000D0FA
:101AB00000D0CDB7DEB789836A838981282F30E0D3
:101AC0003E832D838D819E818130910521F12D8171
:101AD0003E81223031052CF48D819E81009761F08A
:101AE00046C02D813E812230310521F18D819E81BC
:101AF0008330910571F13BC0A3E5B0E0E3E5F0E090
:101B000080818F7B8C93A3E5B0E0E3E5F0E08081FA
:101B1000877F8C932CC0A3E5B0E0E3E5F0E0808103
:101B200080648C93A3E5B0E0E3E5F0E08081877FFB
:101B30008C931DC0A3E5B0E0E3E5F0E080818F7BEE
:101B40008C93A3E5B0E0E3E5F0E0808188608C93BE
:101B50000EC0A3E5B0E0E3E5F0E0808180648C9303
:101B6000A3E5B0E0E3E5F0E0808188608C938A81B2
:101B7000282F30E03C832B838B819C818130910521
:101B800021F12B813C81223031052CF48B819C8109
:101B9000009761F05BC02B813C812230310559F107
:101BA0008B819C8183309105E1F150C0A3E5B0E0C9
:101BB000E3E5F0E080818F7E8C93A3E5B0E0E3E580
:101BC000F0E080818F7D8C9341C0A3E5B0E0E3E538
:101BD000F0E0808180618C93A3E5B0E0E3E5F0E084
:101BE00080818F7D8C93A7E3B0E0E7E3F0E0808114
:101BF00088608C932BC0A3E5B0E0E3E5F0E0808142
:101C00008F7E8C93A3E5B0E0E3E5F0E08081806215
:101C10008C93A7E3B0E0E7E3F0E0808188608C93E9
:101C200015C0A3E5B0E0E3E5F0E0808180618C932E
:101C3000A3E5B0E0E3E5F0E0808180628C93A7E368
:101C4000B0E0E7E3F0E0808188608C93A3E5B0E04A
:101C5000E3E5F0E080818E7F8C93A3E5B0E0E3E5DF
:101C6000F0E0808182608C93A3E5B0E0E3E5F0E0F2
:101C700080818B7F8C9326960FB6F894DEBF0FBEC3
:101C8000CDBFCF91DF910895DF93CF930F92CDB762
:101C9000DEB78983ECE5F0E0898180830F90CF91F6
:101CA000DF910895DF93CF93CDB7DEB7A9E5B0E01C
:101CB000E9E5F0E0808181608C93CF91DF91089518
:101CC000DF93CF93CDB7DEB7A9E5B0E0E9E5F0E06B
:101CD00080818E7F8C93CF91DF910895DF93CF9396
:101CE00000D0CDB7DEB79A83898389819A8190939A
:101CF0005402809353020F900F90CF91DF9108957B
:101D00001F920F920FB60F9211242F933F934F9370
:101D10005F936F937F938F939F93AF93BF93EF9353
:101D2000FF93DF93CF93CDB7DEB7809153029091AD
:101D30005402009729F0E0915302F0915402099562
:101D4000CF91DF91FF91EF91BF91AF919F918F91D3
:101D50007F916F915F914F913F912F910F900FBEA7
:101D60000F901F901895DF93CF93CDB7DEB7E7E3C1
:101D7000F0E080E48083EDE2F0E080E48083CF91C6
:101D8000DF910895DF93CF93CDB7DEB7EEE2F0E0B9
:101D900080818823DCF7EFE2F0E08081CF91DF9152
:101DA0000895DF93CF93CDB7DEB7E7E3F0E080EAA5
:101DB0008083EDE2F0E081E58083CF91DF910895AB
:101DC000DF93CF930F92CDB7DEB78983EFE2F0E0D8
:101DD00089818083EEE2F0E080818823DCF70F9038
:101DE000CF91DF910895DF93CF93CDB7DEB72A97D8
:101DF0000FB6F894DEBF0FBECDBF89836A83898199
:101E0000282F30E03A87298789859A858130910586
:101E100009F46DC029853A852230310509F4C9C01D
:101E200089859A85009709F0EAC0ABE5B0E0EBE55B
:101E3000F0E0808180648C938A81282F30E038879D
:101E40002F838F8198858130910521F12F813885ED
:101E5000223031052CF48F819885009761F0CFC036
:101E60002F8138852230310521F18F81988583308B
:101E7000910571F1C4C0A5E5B0E0E5E5F0E0808131
:101E80008E7F8C93A5E5B0E0E5E5F0E080818D7F65
:101E90008C93B5C0A5E5B0E0E5E5F0E08081816018
:101EA0008C93A5E5B0E0E5E5F0E080818D7F8C9333
:101EB000A6C0A5E5B0E0E5E5F0E080818E7F8C93DB
:101EC000A5E5B0E0E5E5F0E0808182608C9397C005
:101ED000A5E5B0E0E5E5F0E0808181608C93A5E5C3
:101EE000B0E0E5E5F0E0808182608C9388C0ABE5EE
:101EF000B0E0EBE5F0E0808180688C938A81282F48
:101F000030E03E832D838D819E818130910521F1CA
:101F10002D813E81223031052CF48D819E810097E8
:101F200061F06DC02D813E812230310521F18D811E
:101F30009E818330910571F162C0A5E5B0E0E5E5D1
:101F4000F0E080818B7F8C93A5E5B0E0E5E5F0E0E3
:101F50008081877F8C9353C0A5E5B0E0E5E5F0E094
:101F6000808184608C93A5E5B0E0E5E5F0E08081B8
:101F7000877F8C9344C0A5E5B0E0E5E5F0E0808183
:101F80008B7F8C93A5E5B0E0E5E5F0E0808188608B
:101F90008C9335C0A5E5B0E0E5E5F0E08081846094
:101FA0008C93A5E5B0E0E5E5F0E0808188608C9356
:101FB00026C0ABE5B0E0EBE5F0E0808180628C9379
:101FC0008A81282F30E03C832B838B819C81823057
:101FD000910531F02B813C812330310549F00FC050
:101FE000A4E5B0E0E4E5F0E0808180648C9307C074
:101FF000A4E5B0E0E4E5F0E080818F7B8C932A9645
:102000000FB6F894DEBF0FBECDBFCF91DF9108951C
:10201000DF93CF9300D00F92CDB7DEB7898389814C
:10202000282F30E03B832A838A819B818130910570
:1020300089F02A813B8122303105A1F08A819B8180
:102040000097B9F4ABE5B0E0EBE5F0E080818F7B81
:102050008C930FC0ABE5B0E0EBE5F0E080818F77CB
:102060008C9307C0ABE5B0E0EBE5F0E080818F7DBD
:102070008C930F900F900F90CF91DF910895DF9385
:10208000CF9300D000D00F92CDB7DEB789837B838A
:102090006A838981282F30E03D832C838C819D8148
:1020A0008130910581F02C813D812230310591F004
:1020B0008C819D810097A1F48A819B819093560227
:1020C000809355020DC08A819B8190935802809322
:1020D000570206C08A819B8190935A0280935902CD
:1020E0000F900F900F900F900F90CF91DF91089568
:1020F0001F920F920FB60F9211242F933F934F937D
:102100005F936F937F938F939F93AF93BF93EF935F
:10211000FF93DF93CF93CDB7DEB7809155029091B7
:102120005602009729F0E0915502F0915602099568
:10213000CF91DF91FF91EF91BF91AF919F918F91DF
:102140007F916F915F914F913F912F910F900FBEB3
:102150000F901F9018951F920F920FB60F92112497
:102160002F933F934F935F936F937F938F939F939F
:10217000AF93BF93EF93FF93DF93CF93CDB7DEB7CA
:102180008091590290915A02009729F0E0915902EA
:10219000F0915A020995CF91DF91FF91EF91BF9194
:1021A000AF919F918F917F916F915F914F913F91EF
:1021B0002F910F900FBE0F901F9018951F920F92A6
:1021C0000FB60F9211242F933F934F935F936F930A
:1021D0007F938F939F93AF93BF93EF93FF93DF937F
:1021E000CF93CDB7DEB78091590290915A020097F4
:1021F00029F0E0915902F0915A020995CF91DF91AF
:10220000FF91EF91BF91AF919F918F917F916F91CE
:102210005F914F913F912F910F900FBE0F901F90A4
:102220001895DF93CF930F92CDB7DEB7198219823D
:1022300072C18981282F30E0C901880F991F820F50
:10224000931FFC01E555FE4F8081882309F04DC0A6
:102250008981282F30E0C901880F991F820F931FB1
:10226000FC01E355FE4F80818130F9F4AAE3B0E030
:10227000EAE3F0E08081482F8981282F30E0C9010E
:10228000880F991F820F931FFC01E455FE4F808138
:10229000282F30E081E090E0022E02C0880F991FC5
:1022A0000A94E2F7842B8C9333C1AAE3B0E0EAE30B
:1022B000F0E08081482F8981282F30E0C901880F04
:1022C000991F820F931FFC01E455FE4F8081282F38
:1022D00030E081E090E0022E02C0880F991F0A943E
:1022E000E2F7809584238C9313C18981282F30E0F5
:1022F000C901880F991F820F931FFC01E555FE4FFE
:102300008081813009F04DC08981282F30E0C901DA
:10231000880F991F820F931FFC01E355FE4F8081A8
:102320008130F9F4A7E3B0E0E7E3F0E08081482FE3
:102330008981282F30E0C901880F991F820F931FD0
:10234000FC01E455FE4F8081282F30E081E090E0D1
:10235000022E02C0880F991F0A94E2F7842B8C93F7
:10236000D7C0A7E3B0E0E7E3F0E08081482F8981A0
:10237000282F30E0C901880F991F820F931FFC019D
:10238000E455FE4F8081282F30E081E090E0022E5E
:1023900002C0880F991F0A94E2F7809584238C93DA
:1023A000B7C08981282F30E0C901880F991F820F9B
:1023B000931FFC01E555FE4F8081823009F04DC02E
:1023C0008981282F30E0C901880F991F820F931F40
:1023D000FC01E355FE4F80818130F9F4A4E3B0E0C5
:1023E000E4E3F0E08081482F8981282F30E0C901A3
:1023F000880F991F820F931FFC01E455FE4F8081C7
:10240000282F30E081E090E0022E02C0880F991F53
:102410000A94E2F7842B8C937BC0A4E3B0E0E4E35E
:10242000F0E08081482F8981282F30E0C901880F92
:10243000991F820F931FFC01E455FE4F8081282FC6
:1024400030E081E090E0022E02C0880F991F0A94CC
:10245000E2F7809584238C935BC08981282F30E03C
:10246000C901880F991F820F931FFC01E555FE4F8C
:102470008081833009F04CC08981282F30E0C90168
:10248000880F991F820F931FFC01E355FE4F808137
:102490008130F9F4A1E3B0E0E1E3F0E08081482F7E
:1024A0008981282F30E0C901880F991F820F931F5F
:1024B000FC01E455FE4F8081282F30E081E090E060
:1024C000022E02C0880F991F0A94E2F7842B8C9386
:1024D0001FC0A1E3B0E0E1E3F0E08081482F8981F3
:1024E000282F30E0C901880F991F820F931FFC012C
:1024F000E455FE4F8081282F30E081E090E0022EED
:1025000002C0880F991F0A94E2F7809584238C9368
:1025100089818F5F89838981843108F48ACE0F9005
:10252000CF91DF910895DF93CF9300D000D0CDB746
:10253000DEB78B836C838B818695869586958A839F
:102540008B81877089838A81882381F58C81813092
:10255000A1F4ABE3B0E0EBE3F0E08081482F8981A8
:10256000282F30E081E090E0022E02C0880F991FF2
:102570000A94E2F7842B8C93B0C08C81882309F0F5
:10258000ACC0ABE3B0E0EBE3F0E08081482F8981A1
:10259000282F30E081E090E0022E02C0880F991FC2
:1025A0000A94E2F7809584238C9397C08A818130C6
:1025B00081F58C818130A1F4A8E3B0E0E8E3F0E09C
:1025C0008081482F8981282F30E081E090E0022E21
:1025D00002C0880F991F0A94E2F7842B8C937DC068
:1025E0008C81882309F079C0A8E3B0E0E8E3F0E04B
:1025F0008081482F8981282F30E081E090E0022EF1
:1026000002C0880F991F0A94E2F7809584238C9367
:1026100064C08A81823081F58C818130A1F4A5E388
:10262000B0E0E5E3F0E08081482F8981282F30E099
:1026300081E090E0022E02C0880F991F0A94E2F711
:10264000842B8C934AC08C81882309F046C0A5E373
:10265000B0E0E5E3F0E08081482F8981282F30E069
:1026600081E090E0022E02C0880F991F0A94E2F7E1
:10267000809584238C9331C08A81833071F58C815D
:102680008130A1F4A2E3B0E0E2E3F0E08081482FE2
:102690008981282F30E081E090E0022E02C0880F6F
:1026A000991F0A94E2F7842B8C9317C08C8188239E
:1026B000A1F4A2E3B0E0E2E3F0E08081482F898159
:1026C000282F30E081E090E0022E02C0880F991F91
:1026D0000A94E2F7809584238C930F900F900F90CB
:1026E0000F90CF91DF910895DF93CF9300D00F9299
:1026F000CDB7DEB78B838B818695869586958A8349
:102700008B81877089838A818823A1F4ABE3B0E051
:10271000EBE3F0E08081482F8981282F30E081E0D1
:1027200090E0022E02C0880F991F0A94E2F78427D6
:102730008C9344C08A818130A1F4A8E3B0E0E8E33F
:10274000F0E08081482F8981282F30E081E090E0FF
:10275000022E02C0880F991F0A94E2F784278C93F7
:102760002DC08A818230A1F4A5E3B0E0E5E3F0E07A
:102770008081482F8981282F30E081E090E0022E6F
:1027800002C0880F991F0A94E2F784278C9316C021
:102790008A81833099F4A2E3B0E0E2E3F0E0808143
:1027A000482F8981282F30E081E090E0022E02C07E
:1027B000880F991F0A94E2F784278C930F900F904B
:1027C0000F90CF91DF910895DF93CF9300D000D089
:1027D000CDB7DEB78C831B828C81869586958695D6
:1027E0008A838C81877089838A81882391F4E9E3C5
:1027F000F0E08081282F30E08981882F90E0A901C6
:1028000002C0559547958A95E2F7CA0181708B837E
:102810003EC08A81813091F4E6E3F0E08081282F88
:1028200030E08981882F90E0A90102C05595479535
:102830008A95E2F7CA0181708B8329C08A81823030
:1028400091F4E3E3F0E08081282F30E08981882F44
:1028500090E0A90102C0559547958A95E2F7CA0113
:1028600081708B8314C08A81833089F4E0E3F0E0C7
:102870008081282F30E08981882F90E0A90102C053
:10288000559547958A95E2F7CA0181708B838B81B4
:102890000F900F900F900F90CF91DF910895DF93DD
:1028A000CF93CDB7DEB7A7E2B0E0E7E2F0E08081FA
:1028B0008F7B8C93A7E2B0E0E7E2F0E080818F7736
:1028C0008C93A7E2B0E0E7E2F0E080818F7D8C930B
:1028D000A0E5B0E0E0E5F0E0808180628C93A0E5C7
:1028E000B0E0E0E5F0E0808180648C93A0E5B0E0AA
:1028F000E0E5F0E0808180688C93A6E2B0E0E6E25B
:10290000F0E080818F7D8C93A6E2B0E0E6E2F0E01B
:10291000808180688C93CF91DF910895DF93CF936E
:1029200000D00F92CDB7DEB78B831A821982A7E24F
:10293000B0E0E7E2F0E08081807E8C93A7E2B0E037
:10294000E7E2F0E090818B81892B8C93A6E2B0E0E6
:10295000E6E2F0E0808180648C93E6E2F0E0808142
:1029600082958F70882F90E0817090700097A9F306
:10297000A6E2B0E0E6E2F0E0808180618C93E4E2E0
:10298000F0E08081882F90E09A838983E5E2F0E08F
:102990008081882F90E0982F88279C0189819A81D7
:1029A000822B932B9A83898389819A810F900F9030
:1029B0000F90CF91DF910895DF93CF93CDB7DEB71E
:1029C000A6E2B0E0E6E2F0E0808188608C93CF91EF
:1029D000DF910895DF93CF93CDB7DEB7A6E2B0E0E5
:1029E000E6E2F0E08081877F8C93CF91DF910895BC
:1029F000DF93CF9300D0CDB7DEB79A8389838981E7
:102A00009A8190935C0280935B020F900F90CF911C
:102A1000DF9108951F920F920FB60F9211242F93FA
:102A20003F934F935F936F937F938F939F93AF9356
:102A3000BF93EF93FF93DF93CF93CDB7DEB7809132
:102A40005B0290915C02009729F0E0915B02F091AB
:102A50005C020995CF91DF91FF91EF91BF91AF910A
:102A60009F918F917F916F915F914F913F912F91A6
:102A70000F900FBE0F901F901895DF93CF93CDB797
:102A8000DEB78FE060E040E20E947F09EAE4F0E018
:102A900080E29EE4918380838FE796E10E94A60BFB
:102AA0008EEB96E10E94310B0E94230BCF91DF91B8
:102AB00008950F931F93DF93CF93CDB7DEB76D9734
:102AC0000FB6F894DEBF0FBECDBF9D8F8C8F1B8ECF
:102AD0001A8E198E10926402109263021092620292
:102AE00010926102ECE4F0E01182108288E061E073
:102AF0000E94931280E090E0A0E2B1E48D8B9E8B67
:102B0000AF8BB88F6D897E898F89988D2BEA3AEAD1
:102B10004AE250E40E941F02DC01CB01898B9A8BB0
:102B2000AB8BBC8B69897A898B899C8920E030E0EA
:102B300040E85FE30E94250488231CF481E0888B31
:102B400091C069897A898B899C8920E030E04FE7C0
:102B500053E40E94C50318160CF07BC06D897E8972
:102B60008F89988D20E030E04AE754E40E941903F1
:102B7000DC01CB018C879D87AE87BF876C857D8507
:102B80008E859F8520E030E04AEF54E40E941F02CA
:102B9000DC01CB0188879987AA87BB8768857985FF
:102BA0008A859B8520E030E040E85FE30E942504B1
:102BB00088232CF481E090E09F838E833FC068855A
:102BC00079858A859B8520E03FEF4FE757E40E9497
:102BD000C50318164CF56C857D858E859F8520E094
:102BE00030E040E251E40E941F02DC01CB01BC0155
:102BF000CD010E944900DC01CB019F838E830FC071
:102C000088EC90E09D838C838C819D810197F1F706
:102C10009D838C838E819F8101979F838E838E817C
:102C20009F81009769F724C0688579858A859B858F
:102C30000E944900DC01CB019F838E838E819F819E
:102C40009B838A838A819B810197F1F79B838A8387
:102C50000FC069897A898B899C890E944900DC01AF
:102C6000CB01888B8889898389818A95F1F789834B
:102C700088E060E00E94931281E00E946B0B0E944A
:102C80008A0B809161029091620282309105C8F3B3
:102C900020915F023091600280915D0290915E020E
:102CA0008901081B190B8091630290916402CC0189
:102CB000A0E0B0E02FEF3FEF40E050E0BC01CD01DD
:102CC0000E949D24DC01CB01800F911F9A8F898F78
:102CD000898D9A8D2AE330E0B9010E94BC24CB0192
:102CE0008B8F0E94980B8B8D6D960FB6F894DEBF7C
:102CF0000FBECDBFCF91DF911F910F910895DF934C
:102D0000CF93CDB7DEB780916102909162020097B8
:102D1000B1F41092640210926302E6E4F0E0808164
:102D2000918190935E0280935D0281E090E09093A8
:102D300062028093610280E00E946B0B1CC0809154
:102D400061029091620281309105A9F4E6E4F0E01D
:102D5000808191819093600280935F0282E090E095
:102D6000909362028093610281E00E946B0B0E944B
:102D7000980B0E94430BCF91DF910895DF93CF937F
:102D8000CDB7DEB780916302909164020196909373
:102D9000640280936302CF91DF910895DF93CF9314
:102DA0000F92CDB7DEB789838981982F917080E12A
:102DB000692F0E94931289818695982F917081E1E5
:102DC000692F0E949312898186958695982F91701C
:102DD00082E1692F0E949312898186958695869556
:102DE000982F917083E1692F0E9493120F90CF91D9
:102DF000DF910895DF93CF93CDB7DEB7A1970FB6DC
:102E0000F894DEBF0FBECDBF8F8F79A368A38F8DDF
:102E1000813009F086C01E8E7FC08E8D0E94CE1636
:102E200088A199A1CC01A0E0B0E0BC01CD010E9435
:102E3000A904DC01CB01898F9A8FAB8FBC8F698D80
:102E40007A8D8B8D9C8D20E030E04AEF54E40E9417
:102E50001F02DC01CB018D8B9E8BAF8BB88F6D89F0
:102E60007E898F89988D20E030E040E85FE30E9402
:102E7000250488232CF481E090E09C8B8B8B3FC051
:102E80006D897E898F89988D20E03FEF4FE757E469
:102E90000E94C50318164CF5698D7A8D8B8D9C8D1B
:102EA00020E030E040E251E40E941F02DC01CB014F
:102EB000BC01CD010E944900DC01CB019C8B8B8BB6
:102EC0000FC088EC90E09A8B898B89899A89019749
:102ED000F1F79A8B898B8B899C8901979C8B8B8BC3
:102EE0008B899C89009769F714C06D897E898F89C9
:102EF000988D0E944900DC01CB019C8B8B8B8B89C8
:102F00009C89988B8F878F8598890197F1F7988B8B
:102F10008F878E8D8F5F8E8F8E8D8A3008F47DCF58
:102F200086C08F8D882309F082C089E08D8F8D8DBA
:102F30000E94CE1688A199A1CC01A0E0B0E0BC010E
:102F4000CD010E94A904DC01CB018B879C87AD8752
:102F5000BE876B857C858D859E8520E030E04AEFBD
:102F600054E40E941F02DC01CB018F839887A9875C
:102F7000BA876F81788589859A8520E030E040E8BE
:102F80005FE30E94250488232CF481E090E09E8377
:102F90008D833FC06F81788589859A8520E03FEFDA
:102FA0004FE757E40E94C50318164CF56B857C85E6
:102FB0008D859E8520E030E040E251E40E941F02B2
:102FC000DC01CB01BC01CD010E944900DC01CB0139
:102FD0009E838D830FC088EC90E09C838B838B81D4
:102FE0009C810197F1F79C838B838D819E81019752
:102FF0009E838D838D819E81009769F714C06F81B8
:10300000788589859A850E944900DC01CB019E83E1
:103010008D838D819E819A83898389819A8101978D
:10302000F1F79A8389838D8D81508D8F80CFA19602
:103030000FB6F894DEBF0FBECDBFCF91DF910895DC
:10304000DF93CF930F92CDB7DEB789838981882331
:1030500039F4E8E4F0E088EE93E09183808318C0CF
:103060008981843B39F4E8E4F0E080ED97E09183D6
:1030700080830EC089818A3539F4E8E4F0E08CED74
:1030800095E09183808304C0E8E4F0E0118210822F
:103090000F90CF91DF910895DF93CF93CDB7DEB737
:1030A0002E970FB6F894DEBF0FBECDBF80E090E044
:1030B000A0EAB1E48B879C87AD87BE876B857C8552
:1030C0008D859E8520E030E04AEF54E40E941F0287
:1030D000DC01CB018F839887A987BA876F817885B8
:1030E00089859A8520E030E040E85FE30E9425046E
:1030F00088232CF481E090E09E838D833FC06F8114
:10310000788589859A8520E03FEF4FE757E40E9454
:10311000C50318164CF56B857C858D859E8520E052
:1031200030E040E251E40E941F02DC01CB01BC010F
:10313000CD010E944900DC01CB019E838D830FC02D
:1031400088EC90E09C838B838B819C810197F1F7C5
:103150009C838B838D819E8101979E838D838D813E
:103160009E81009769F714C06F81788589859A855B
:103170000E944900DC01CB019E838D838D819E815D
:103180009A83898389819A810197F1F79A83898348
:1031900083E30E94E61882E30E94E61888E20E9418
:1031A000E6188CE00E94E61886E00E94E61880E8A7
:1031B0000E94E61881E00E94E6182E960FB6F89459
:1031C000DEBF0FBECDBFCF91DF910895DF93CF93C8
:1031D0000F92CDB7DEB7898389E060E00E94931239
:1031E0008AE060E00E949312898188232CF484E0B5
:1031F00061E00E94931204C084E060E00E94931298
:1032000089818295869586958370882F90E081705C
:103210009070882329F085E061E00E94931204C039
:1032200085E060E00E94931289818295869587707F
:10323000882F90E081709070882329F086E061E00B
:103240000E94931204C086E060E00E94931289817C
:1032500082958F70882F90E081709070882329F07C
:1032600087E061E00E94931204C087E060E00E9462
:1032700093120E94461B8981869586958695882F94
:1032800090E081709070882329F084E061E00E94D2
:10329000931204C084E060E00E94931289818695B5
:1032A0008695882F90E081709070882329F085E0C2
:1032B00061E00E94931204C085E060E00E949312D6
:1032C00089818695882F90E081709070882329F0FD
:1032D00086E061E00E94931204C086E060E00E94F4
:1032E00093128981882F90E081709070882329F053
:1032F00087E061E00E94931204C087E060E00E94D2
:1033000093120E94461B0F90CF91DF910895DF9397
:10331000CF930F92CDB7DEB7898389E061E00E9439
:1033200093128AE060E00E949312898188232CF432
:1033300084E061E00E94931204C084E060E00E9497
:10334000931289818295869586958370882F90E067
:1033500081709070882329F085E061E00E949312CB
:1033600004C085E060E00E94931289818295869571
:103370008770882F90E081709070882329F086E014
:1033800061E00E94931204C086E060E00E94931204
:10339000898182958F70882F90E08170907088234A
:1033A00029F087E061E00E94931204C087E060E0AA
:1033B0000E9493120E94461B898186958695869568
:1033C000882F90E081709070882329F084E061E07C
:1033D0000E94931204C084E060E00E9493128981ED
:1033E00086958695882F90E081709070882329F0CB
:1033F00085E061E00E94931204C085E060E00E94D5
:10340000931289818695882F90E08170907088232F
:1034100029F086E061E00E94931204C086E060E03B
:103420000E9493128981882F90E081709070882388
:1034300029F087E061E00E94931204C087E060E019
:103440000E9493120E94461B0F90CF91DF91089526
:10345000DF93CF9300D00F92CDB7DEB789836A8315
:103460004B838A816B810E94DD1C89810E948719B0
:103470000F900F900F90CF91DF910895DF93CF932E
:1034800000D0CDB7DEB79A8389830BC0E981FA817A
:10349000208189819A8101969A838983822F0E9453
:1034A0008719E981FA818081882381F70F900F9035
:1034B000CF91DF910895DF93CF9300D000D0CDB7A7
:1034C000DEB79A8389836B834C838B816C810E94E6
:1034D000DD1C89819A810E943E1A0F900F900F90F7
:1034E0000F90CF91DF9108950F931F93DF93CF93A8
:1034F000CDB7DEB760970FB6F894DEBF0FBECDBF75
:103500006D877E878F87988B1A8219828D859E851D
:10351000AF85B8890097A105B10591F580E30E94B8
:1035200087194DC08A81082F10E08D859E85AF8553
:10353000B8892AE030E040E050E0BC01CD010E94B3
:10354000D024DC01CB01282F205DCE010396FC01A5
:10355000E00FF11F20838D859E85AF85B8892AE015
:1035600030E040E050E0BC01CD010E94D024DA01FF
:10357000C9018D879E87AF87B88B8A818F5F8A83C9
:103580008D859E85AF85B8890097A105B10551F657
:103590008A81898311C08981882F90E09C01215004
:1035A0003040CE010396FC01E20FF31F80810E94A0
:1035B00087198981815089838981882361F7609681
:1035C0000FB6F894DEBF0FBECDBFCF91DF911F9134
:1035D0000F910895DF93CF9300D000D000D0CDB7E6
:1035E000DEB769837A838B839C834D832E838D81A1
:1035F0006E810E94DD1C89819A81AB81BC81BC01F6
:10360000CD010E94741A26960FB6F894DEBF0FBE45
:10361000CDBFCF91DF910895DF93CF9300D000D03D
:1036200000D0CDB7DEB79B838A836C834D832E8316
:1036300019828E81882F90E00896880F991F880F35
:10364000991F880F991F0E94E61819820EC0898160
:10365000282F30E08A819B81FC01E20FF31F8081DB
:103660000E94871989818F5F89838981883078F3E7
:103670008E816C814D810E94281A26960FB6F8948F
:10368000DEBF0FBECDBFCF91DF910895DF93CF9303
:10369000CDB7DEB7E0970FB6F894DEBF0FBECDBF53
:1036A0008BE061E00E94931280E090E0A0E2B1E440
:1036B0008DA79EA7AFA7B8AB6DA57EA58FA598A92E
:1036C0002BEA3AEA4AE250E40E941F02DC01CB01F5
:1036D00089A79AA7ABA7BCA769A57AA58BA59CA526
:1036E00020E030E040E85FE30E94250488231CF4DA
:1036F00081E088A791C069A57AA58BA59CA520E04B
:1037000030E04FE753E40E94C50318160CF07BC06D
:103710006DA57EA58FA598A920E030E04AE754E486
:103720000E941903DC01CB018CA39DA3AEA3BFA310
:103730006CA17DA18EA19FA120E030E04AEF54E46E
:103740000E941F02DC01CB0188A399A3AAA3BBA3FB
:1037500068A179A18AA19BA120E030E040E85FE365
:103760000E94250488232CF481E090E09F8F8E8FA7
:103770003FC068A179A18AA19BA120E03FEF4FE75C
:1037800057E40E94C50318164CF56CA17DA18EA1CB
:103790009FA120E030E040E251E40E941F02DC01E2
:1037A000CB01BC01CD010E944900DC01CB019F8F00
:1037B0008E8F0FC088EC90E09D8F8C8F8C8D9D8DAF
:1037C0000197F1F79D8F8C8F8E8D9F8D01979F8F25
:1037D0008E8F8E8D9F8D009769F724C068A179A187
:1037E0008AA19BA10E944900DC01CB019F8F8E8F93
:1037F0008E8D9F8D9B8F8A8F8A8D9B8D0197F1F780
:103800009B8F8A8F0FC069A57AA58BA59CA50E9466
:103810004900DC01CB0188A788A5898F898D8A950D
:10382000F1F7898F8BE060E00E94931280E090E0D6
:10383000AAEFB4E48D8B9E8BAF8BB88F6D897E8998
:103840008F89988D2BEA3AEA4AE250E40E941F02DF
:10385000DC01CB01898B9A8BAB8BBC8B69897A8914
:103860008B899C8920E030E040E85FE30E942504DA
:1038700088231CF481E0888B91C069897A898B89BF
:103880009C8920E030E04FE753E40E94C5031816FE
:103890000CF07BC06D897E898F89988D20E030E0A7
:1038A0004AE754E40E941903DC01CB018C879D8711
:1038B000AE87BF876C857D858E859F8520E030E053
:1038C0004AEF54E40E941F02DC01CB0188879987EC
:1038D000AA87BB87688579858A859B8520E030E04B
:1038E00040E85FE30E94250488232CF481E090E007
:1038F0009F838E833FC0688579858A859B8520E07C
:103900003FEF4FE757E40E94C50318164CF56C854E
:103910007D858E859F8520E030E040E251E40E9465
:103920001F02DC01CB01BC01CD010E944900DC017A
:10393000CB019F838E830FC088EC90E09D838C83A6
:103940008C819D810197F1F79D838C838E819F816E
:1039500001979F838E838E819F81009769F724C092
:10396000688579858A859B850E944900DC01CB01A9
:103970009F838E838E819F819B838A838A819B8193
:103980000197F1F79B838A830FC069897A898B89B4
:103990009C890E944900DC01CB01888B888989833E
:1039A00089818A95F1F78983E0960FB6F894DEBF96
:1039B0000FBECDBFCF91DF910895DF93CF9300D09D
:1039C00000D0CDB7DEB789836A838A8181508A832C
:1039D0008981282F30E03C832B838B819C8181302F
:1039E000910531F02B813C812230310531F009C045
:1039F0008A8180580E94E61804C08A8180540E94FF
:103A0000E6180F900F900F900F90CF91DF910895CF
:103A1000DF93CF9300D000D00F92CDB7DEB71D82D9
:103A20001C821B821A8219821D823AC08CE08C8310
:103A300007C08C8160E00E9493128C818F5F8C8321
:103A40008C818031B0F38D81845F61E00E9493129C
:103A50008BE18B831FC08B810E94E4138A838A8150
:103A60008130A9F48D81482F50E08B81882F90E020
:103A70009C012B513040CA01880F991F880F991F54
:103A8000820F931FFC01ED5CFD4F808189838B8148
:103A90008F5F8B838B818F31F0F28D818F5F8D8370
:103AA0008D81843018F289810F900F900F900F90C4
:103AB0000F90CF91DF910895DF93CF9300D00F92B5
:103AC000CDB7DEB78B838B810E94E4138A83198282
:103AD0008A81882319F481E0898304C08A81813036
:103AE00009F4198289810F900F900F90CF91DF9187
:103AF0000895DF93CF9300D0CDB7DEB79A83898343
:103B0000E981FA81808161E00E949312E981FA8162
:103B1000818160E00E9493120F900F90CF91DF910E
:103B20000895DF93CF9300D0CDB7DEB79A83898312
:103B3000E981FA81808160E00E949312E981FA8133
:103B4000818161E00E9493120F900F90CF91DF91DD
:103B50000895DF93CF9300D0CDB7DEB79A838983E2
:103B6000E981FA81808160E00E949312E981FA8103
:103B7000818160E00E9493120F900F90CF91DF91AE
:103B80000895DF93CF930F92CDB7DEB778940E945C
:103B900011110E943D150E94DF0780E690E00E940F
:103BA000370983E790E00E94370981E890E00E949E
:103BB00037090E94280989838981823519F40E9476
:103BC000E720EBCF8981863541F70E941621E5CFAA
:103BD000DF93CF93CDB7DEB787EE91E00E94791DDA
:103BE00089EE91E00E94791DCF91DF910895DF93D6
:103BF000CF93CDB7DEB787EE91E00E94911D89EE9D
:103C000091E00E94911DCF91DF910895DF93CF93B2
:103C1000CDB7DEB787EE91E00E94791D89EE91E085
:103C20000E94A91DCF91DF910895DF93CF93CDB767
:103C3000DEB787EE91E00E94A91D89EE91E00E9417
:103C4000791DCF91DF910895DF93CF93CDB7DEB784
:103C50002E970FB6F894DEBF0FBECDBF0E94061E92
:103C600080E090E8ABEBB4E48B879C87AD87BE87A0
:103C70006B857C858D859E8520E030E04AEF54E49D
:103C80000E941F02DC01CB018F839887A987BA8726
:103C90006F81788589859A8520E030E040E85FE390
:103CA0000E94250488232CF481E090E09E838D837C
:103CB0003FC06F81788589859A8520E03FEF4FE787
:103CC00057E40E94C50318164CF56B857C858D85DD
:103CD0009E8520E030E040E251E40E941F02DC01BA
:103CE000CB01BC01CD010E944900DC01CB019E83C8
:103CF0008D830FC088EC90E09C838B838B819C81AB
:103D00000197F1F79C838B838D819E8101979E8320
:103D10008D838D819E81009769F714C06F817885AE
:103D200089859A850E944900DC01CB019E838D83A1
:103D30008D819E819A83898389819A810197F1F788
:103D40009A8389830E944A202E960FB6F894DEBF8C
:103D50000FBECDBFCF91DF910895DF93CF93CDB745
:103D6000DEB72E970FB6F894DEBF0FBECDBF0E9410
:103D7000151E80E090E8ABEBB4E48B879C87AD87A1
:103D8000BE876B857C858D859E8520E030E04AEF7F
:103D900054E40E941F02DC01CB018F839887A9871E
:103DA000BA876F81788589859A8520E030E040E880
:103DB0005FE30E94250488232CF481E090E09E8339
:103DC0008D833FC06F81788589859A8520E03FEF9C
:103DD0004FE757E40E94C50318164CF56B857C85A8
:103DE0008D859E8520E030E040E251E40E941F0274
:103DF000DC01CB01BC01CD010E944900DC01CB01FB
:103E00009E838D830FC088EC90E09C838B838B8195
:103E10009C810197F1F79C838B838D819E81019713
:103E20009E838D838D819E81009769F714C06F8179
:103E3000788589859A850E944900DC01CB019E83A3
:103E40008D838D819E819A83898389819A8101974F
:103E5000F1F79A8389830E944A202E960FB6F89430
:103E6000DEBF0FBECDBFCF91DF910895DF93CF931B
:103E7000CDB7DEB72E970FB6F894DEBF0FBECDBF1D
:103E80008AE50E94D7200E94061E80E090E8ABE3FE
:103E9000B5E48B879C87AD87BE876B857C858D85D8
:103EA0009E8520E030E04AEF54E40E941F02DC01CE
:103EB000CB018F839887A987BA876F817885898599
:103EC0009A8520E030E040E85FE30E9425048823E3
:103ED0002CF481E090E09E838D833FC06F817885D4
:103EE00089859A8520E03FEF4FE757E40E94C5039C
:103EF00018164CF56B857C858D859E8520E030E01D
:103F000040E251E40E941F02DC01CB01BC01CD0163
:103F10000E944900DC01CB019E838D830FC088EC99
:103F200090E09C838B838B819C810197F1F79C832C
:103F30008B838D819E8101979E838D838D819E8150
:103F4000009769F714C06F81788589859A850E94EA
:103F50004900DC01CB019E838D838D819E819A83F4
:103F6000898389819A810197F1F79A8389832E96B3
:103F70000FB6F894DEBF0FBECDBFCF91DF9108958D
:103F8000DF93CF93CDB7DEB72E970FB6F894DEBF91
:103F90000FBECDBF8AE50E94D7200E94E81D80E0B9
:103FA00090E0A0E2B1E48B879C87AD87BE876B85EC
:103FB0007C858D859E8520E030E04AEF54E40E94A8
:103FC0001F02DC01CB018F839887A987BA876F8195
:103FD000788589859A8520E030E040E85FE30E949B
:103FE000250488232CF481E090E09E838D833FC0DC
:103FF0006F81788589859A8520E03FEF4FE757E408
:104000000E94C50318164CF56B857C858D859E85B1
:1040100020E030E040E251E40E941F02DC01CB01CD
:10402000BC01CD010E944900DC01CB019E838D8340
:104030000FC088EC90E09C838B838B819C810197DF
:10404000F1F79C838B838D819E8101979E838D8365
:104050008D819E81009769F714C06F81788589856D
:104060009A850E944900DC01CB019E838D838D815E
:104070009E819A83898389819A810197F1F79A8336
:1040800089832E960FB6F894DEBF0FBECDBFCF91B9
:10409000DF910895DF93CF93CDB7DEB72E970FB69C
:1040A000F894DEBF0FBECDBF87EE91E00E94A91D40
:1040B00089EE91E00E94A91D80E090E0A6E1B4E4C1
:1040C0008B879C87AD87BE876B857C858D859E851C
:1040D00020E030E04AEF54E40E941F02DC01CB01F3
:1040E0008F839887A987BA876F81788589859A8514
:1040F00020E030E040E85FE30E94250488232CF4B0
:1041000081E090E09E838D833FC06F8178858985B3
:104110009A8520E03FEF4FE757E40E94C503181649
:104120004CF56B857C858D859E8520E030E040E2F6
:1041300051E40E941F02DC01CB01BC01CD010E94B1
:104140004900DC01CB019E838D830FC088EC90E099
:104150009C838B838B819C810197F1F79C838B835C
:104160008D819E8101979E838D838D819E81009795
:1041700069F714C06F81788589859A850E94490006
:10418000DC01CB019E838D838D819E819A838983FF
:1041900089819A810197F1F79A8389832E960FB6C8
:1041A000F894DEBF0FBECDBFCF91DF910895DF93AE
:1041B000CF930F92CDB7DEB7898389810E949B0A86
:1041C00089810E94DF0A0F90CF91DF910895DF93DC
:1041D000CF930F92CDB7DEB782E990E00E94370906
:1041E0001982CE0101960E9460098981863619F4F0
:1041F0000E94E81DF6CF8981823719F40E94061EBD
:10420000F0CF89818C3619F40E94151EEACF89817E
:10421000833719F40E944A20E4CF8981843709F753
:104220000E944A200F90CF91DF9108950F931F9322
:10423000DF93CF93CDB7DEB7C555D0400FB6F89416
:10424000DEBF0FBECDBF8AE990E00E943709FE01B4
:10425000EB5AFF4F1082CE018B5A9F4F0E9460098C
:10426000FE01EF5AFF4F80E090E0A0E2B1E48083CE
:104270009183A283B3838E01035B1F4FFE01EF5A2C
:10428000FF4F608171818281938120E030E04AEFAD
:1042900054E40E941F02DC01CB01F801808391836A
:1042A000A283B383FE01E35BFF4F60817181828152
:1042B000938120E030E040E85FE30E9425048823FA
:1042C00044F4FE01E55BFF4F81E090E09183808341
:1042D00064C0FE01E35BFF4F608171818281938145
:1042E00020E03FEF4FE757E40E94C50318160CF09B
:1042F00043C0FE01EF5AFF4F60817181828193813B
:1043000020E030E040E251E40E941F02DC01CB01DA
:104310008E01055B1F4FBC01CD010E944900DC01ED
:10432000CB01F801918380831FC0FE01E75BFF4F43
:1043300088EC90E091838083FE01E75BFF4F8081F2
:1043400091810197F1F7FE01E75BFF4F9183808335
:10435000DE01A55BBF4FFE01E55BFF4F80819181D0
:10436000019711969C938E93FE01E55BFF4F808130
:1043700091810097D1F627C08E01055B1F4FFE018A
:10438000E35BFF4F60817181828193810E944900CC
:10439000DC01CB01F80191838083DE01A95BBF4F73
:1043A000FE01E55BFF4F808191818D939C93FE011F
:1043B000E95BFF4F808191810197F1F7FE01E95B95
:1043C000FF4F918380838FE692E00E94591580937E
:1043D0006E02FE01ED5BFF4F80E090E0A0E2B1E4F1
:1043E00080839183A283B3838E01015C1F4FFE0102
:1043F000ED5BFF4F608171818281938120E030E02D
:104400004AEF54E40E941F02DC01CB01F8018083D3
:104410009183A283B383FE01FF96608171818281C3
:10442000938120E030E040E85FE30E942504882388
:104430002CF481E090E09EAF8DAF46C0FE01FF9668
:10444000608171818281938120E03FEF4FE757E4E3
:104450000E94C503181664F5FE01ED5BFF4F6081F5
:1044600071818281938120E030E040E251E40E943A
:104470001F02DC01CB01BC01CD010E944900DC011F
:10448000CB019EAF8DAF0FC088EC90E09CAF8BAF9F
:104490008BAD9CAD0197F1F79CAF8BAF8DAD9EAD11
:1044A00001979EAF8DAF8DAD9EAD009769F716C099
:1044B000FE01FF9660817181828193810E94490093
:1044C000DC01CB019EAF8DAF8DAD9EAD9AAF89AFB4
:1044D00089AD9AAD0197F1F79AAF89AF80916E02DD
:1044E000893230F086E60E940E090E94E81D10C253
:1044F00080916E02883208F00BC20E944A2083E746
:104500000E940E0980E00E94201880E090E0AAE757
:10451000B4E48DAB9EABAFABB8AF6DA97EA98FA94C
:1045200098AD20E030E04AEF54E40E941F02DC0125
:10453000CB0189AB9AABABABBCAB69A97AA98BA910
:104540009CA920E030E040E85FE30E942504882336
:104550002CF481E090E098AB8FA73FC069A97AA9BD
:104560008BA99CA920E03FEF4FE757E40E94C503C9
:1045700018164CF56DA97EA98FA998AD20E030E002
:1045800040E251E40E941F02DC01CB01BC01CD01DD
:104590000E944900DC01CB0198AB8FA70FC088ECCB
:1045A00090E09EA78DA78DA59EA50197F1F79EA7E8
:1045B0008DA78FA598A9019798AB8FA78FA598A9CC
:1045C000009769F714C069A97AA98BA99CA90E94D0
:1045D0004900DC01CB0198AB8FA78FA598A99CA7B8
:1045E0008BA78BA59CA50197F1F79CA78BA78FE6BE
:1045F00092E00E9459158093660280E090E0A6E95F
:10460000B3E48FA398A7A9A7BAA76FA178A589A596
:104610009AA520E030E04AEF54E40E941F02DC013A
:10462000CB018BA39CA3ADA3BEA36BA17CA18DA149
:104630009EA120E030E040E85FE30E94250488234B
:104640002CF481E090E09AA389A33FC06BA17CA1E8
:104650008DA19EA120E03FEF4FE757E40E94C503E4
:1046600018164CF56FA178A589A59AA520E030E031
:1046700040E251E40E941F02DC01CB01BC01CD01EC
:104680000E944900DC01CB019AA389A30FC088ECEA
:1046900090E098A38F8F8F8D98A10197F1F798A341
:1046A0008F8F89A19AA101979AA389A389A19AA121
:1046B000009769F714C06BA17CA18DA19EA10E94F7
:1046C0004900DC01CB019AA389A389A19AA19E8FFD
:1046D0008D8F8D8D9E8D0197F1F79E8F8D8F84EB41
:1046E0000E94201880E090E0AAE7B4E4898F9A8FB6
:1046F000AB8FBC8F698D7A8D8B8D9C8D20E030E0E7
:104700004AEF54E40E941F02DC01CB018D8B9E8B8B
:10471000AF8BB88F6D897E898F89988D20E030E0CE
:1047200040E85FE30E94250488232CF481E090E0B8
:104730009C8B8B8B3FC06D897E898F89988D20E003
:104740003FEF4FE757E40E94C50318164CF5698DFB
:104750007A8D8B8D9C8D20E030E040E251E40E9408
:104760001F02DC01CB01BC01CD010E944900DC012C
:10477000CB019C8B8B8B0FC088EC90E09A8B898B44
:1047800089899A890197F1F79A8B898B8B899C8902
:1047900001979C8B8B8B8B899C89009769F714C040
:1047A0006D897E898F89988D0E944900DC01CB013B
:1047B0009C8B8B8B8B899C89988B8F878F85988915
:1047C0000197F1F7988B8F878FE692E00E94591539
:1047D0008093670280E090E0A6E9B3E48B879C8732
:1047E000AD87BE876B857C858D859E8520E030E01A
:1047F0004AEF54E40E941F02DC01CB018F839887AB
:10480000A987BA876F81788589859A8520E030E00D
:1048100040E85FE30E94250488232CF481E090E0C7
:104820009E838D833FC06F81788589859A8520E03E
:104830003FEF4FE757E40E94C50318164CF56B8510
:104840007C858D859E8520E030E040E251E40E9429
:104850001F02DC01CB01BC01CD010E944900DC013B
:10486000CB019E838D830FC088EC90E09C838B836B
:104870008B819C810197F1F79C838B838D819E8135
:1048800001979E838D838D819E81009769F714C067
:104890006F81788589859A850E944900DC01CB016A
:1048A0009E838D838D819E819A83898389819A815C
:1048B0000197F1F79A8389838AE50E9420189091E5
:1048C000660280916702891778F482E70E940E09D8
:1048D00082E70E940E0982E70E940E0982E70E9489
:1048E0000E090E94241E14C09091660280916702F6
:1048F000981770F48CE60E940E098CE60E940E094F
:104900008CE60E940E098CE60E940E090E94AD1EE4
:10491000FE01EB5AFF4F8081843709F09CCC0E9446
:104920004A20CB5ADF4F0FB6F894DEBF0FBECDBF83
:10493000CF91DF911F910F910895629FD001739FD6
:10494000F001829FE00DF11D649FE00DF11D929F2B
:10495000F00D839FF00D749FF00D659FF00D99276A
:10496000729FB00DE11DF91F639FB00DE11DF91F8E
:10497000BD01CF0111240895AA1BBB1B51E107C043
:10498000AA1FBB1FA617B70710F0A61BB70B881FDF
:10499000991F5A95A9F780959095BC01CD0108956E
:1049A000A1E21A2EAA1BBB1BFD010DC0AA1FBB1F33
:1049B000EE1FFF1FA217B307E407F50720F0A21BA5
:1049C000B30BE40BF50B661F771F881F991F1A9412
:1049D00069F760957095809590959B01AC01BD013C
:1049E000CF0108952F923F924F925F926F927F92E4
:1049F0008F929F92AF92BF92CF92DF92EF92FF92EF
:104A00000F931F93CF93DF93CDB7DEB7CA1BDB0B9A
:104A10000FB6F894DEBF0FBECDBF09942A8839883F
:104A200048885F846E847D848C849B84AA84B98446
:104A3000C884DF80EE80FD800C811B81AA81B98152
:104A4000CE0FD11D0FB6F894DEBF0FBECDBFED0166
:064A50000895F894FFCF69
:104A56000A43686F6F736520796F7572206D6F6496
:104A6600650A000A466F72205243204D6F64650A3C
:104A7600000A5620466F7220563256204D6F6465E6
:104A86000A005243204D6F646500563256204D6F22
:104A9600646500000000000000000000010202033F
:104AA60003030304040404040404040505050505BE
:104AB600050505050505050505050506060606069B
:104AC6000606060606060606060606060606060680
:104AD600060606060606060606060607070707076B
:104AE6000707070707070707070707070707070750
:104AF6000707070707070707070707070707070740
:104B0600070707070707070707070707070707072F
:104B1600070707070707070707070708080808081A
:104B260008080808080808080808080808080808FF
:104B360008080808080808080808080808080808EF
:104B460008080808080808080808080808080808DF
:104B560008080808080808080808080808080808CF
:104B660008080808080808080808080808080808BF
:104B760008080808080808080808080808080808AF
:104B8600080808080808080808080808080808089F
:104B960008080808080808080808080100010101B3
:104BA60001010201010301010401020200020000E9
:104BB60003060003040100000000000000000000DE
:104BC60000000000000000000000000000000000DF
:104BD60000000000000000090A0B0C6700330019F2
:104BE6000010000C000800CF0067003300220019F7
:104BF600001000A001CF006700440033002200CF60
:104C06000067003300220019001000A001CF0067E2
:104C1600004400330022004003A001CF008A006751
:104C26000044003738392F3435362A3132332D26B1
:044C3600303D2B00E2
:00000001FF
